:1000000078C020C291C090C08FC08EC08DC08CC0FF
:100010008BC08AC089C088C087C086C085C00902DD
:100020002200010100801909040000010301010000
:10003000092101010001223F000705810308000A90
:100040001201100100000008424231E100010102EA
:100050000001100350006100730073006700650029
:100060006E00200363006F006400650061006E0095
:1000700064006C006900660065002E0063006F007C
:100080006D000403090405010906A1017501950825
:10009000050719E029E7150025018102950175087A
:1000A000810395057501050819012905910295013E
:1000B0007503910395067508150025650507190058
:1000C00029658100C0204E65772070617373776F5A
:1000D00072642073617665642E0053746172746972
:1000E0006E672067656E65726174696F6E2E2E2E65
:1000F000000011241FBECFE5D2E0DEBFCDBF10E06F
:10010000A0E6B0E0E4EBFAE002C005900D92A43660
:10011000B107D9F720E0A4E6B0E001C01D92A93CE8
:10012000B207E1F74AD4C4C46BCFCF93C62F209156
:100130009E0024FF07C030919F0028E823272093CA
:100140009F0003C02AE520939E00DC01E0EAF0E076
:100150009C2F9E0F8D918193892F8E1B1816D4F39F
:100160006C2F80EA90E057D1CC5FC0939E00CF9176
:100170000895CF93DF936091AF00635067FDC4C0D3
:100180008091AC00CCE0D0E0C81BD109CD54DF4F4A
:100190008091AB008D3209F0A6C0683009F0B2C082
:1001A00083EC809393008AE5809361001092650050
:1001B0008881807639F0CE0112D3982F8F3F09F4D1
:1001C00081C087C09A8110929C008981811106C0EC
:1001D00010929D002CE930E092E06FC0853019F458
:1001E0009093B00067C0863009F04EC08B8181309B
:1001F00041F480E490E09093AE008093AD0092E1F2
:100200003FC0823041F48EE190E09093AE00809345
:10021000AD0092E235C08330F1F4911108C082E85C
:1002200090E09093AE008093AD0094E029C09130AF
:1002300041F482E690E09093AE008093AD0090E2AE
:100240001FC09230E1F482E590E09093AE0080937D
:10025000AD0090E115C0813241F480E390E09093CD
:10026000AE008093AD0099E00BC0823241F486E885
:1002700090E09093AE008093AD009FE301C090E0CA
:1002800080E48093650025C0883069F0893019F4D6
:100290009093B2000FC08A3049F08B3059F48BE450
:1002A00080939F0007C022EB30E002C02CE930E0D1
:1002B00091E003C02CE930E090E03093AE00209351
:1002C000AD0007C0888187FD9E8180E8809365002E
:1002D00007C08F81811104C08E81891708F4982F7F
:1002E000909360000FC08091650087FF0BC0CE0126
:1002F00059D38F3F21F48EE18093610003C08111B7
:10030000109260001092AF008091610084FF48C09D
:10031000809160008F3F09F443C0C82F893008F0F6
:10032000C8E08C1B809360009091930088E8892737
:1003300080939300CC2339F18091AD009091AE0071
:100340002091650026FF0BC0A4E9B0E0FC012C2F32
:10035000280F34913D9331962E13FBCF09C0DC0159
:10036000E4E9F0E02C2F2E0F3D9131932E13FCCFBA
:100370002FEF2C0F30E02F5F3F4F820F931F909392
:10038000AE008093AD006C2F84E990E044D064E02F
:100390006C0F6C3019F08FEF8093600060936100F8
:1003A00084E196B3967031F48150D9F71092B00081
:1003B0001092AA00C1E08111C0E0809164008C1706
:1003C00029F0C11101C03ED2C0936400DF91CF91EA
:1003D000089585B7826085BF8BB780648BBFEEE9D7
:1003E000F0E08BE481838AE580830895A82FB92FFC
:1003F00080E090E041E050EA609530E009C02D9146
:1004000082279795879510F084279527305EC8F34B
:100410006F5FA8F30895EADF8D939D930895A6E09A
:1004200088279927AA9569F00197E1F3B199FCCF44
:10043000B19BFECF81E09927A6B3019611F0A6707B
:10044000D9F70895CF93CFB7CF93C395B19BE9F771
:10045000B19B0BC0B19B09C0B19B07C0B19B05C04C
:10046000B19B03C0B19B01C0D5C00F92DF93C09177
:10047000AC00DD27CD54DF4F012EB19B03C0DF91CF
:100480000F90E6CF2F930F931F934F932FEF4F6F44
:1004900006B301FB20F95F933F9350E03BE065C05A
:1004A00016B30126502951FDC89556B3012701FB0B
:1004B00025F92F7306B3B1F05027102711FB26F949
:1004C00006B22230F0F000C016B3012701FB27F975
:1004D0000126502906B22430E8F54F77206816B37C
:1004E0000000F6CF50274F7D206206B2102F00008B
:1004F00000C006B300265029102711FB26F906B2CA
:10050000E2CF4F7B06B3206400C0DACF012650292A
:10051000167006B269F14E7F2160012F16B328C014
:10052000002650294D7F06B22260102F29C00126D7
:1005300050294B7F06B22460012F2DC016B301262F
:100540005029477F2860000006B22EC04F7E06B3B8
:10055000206130C0422706B3499300265029102756
:1005600006B24FEF11FB20F9297F16B379F216700E
:1005700059F10126502906B2012701FB21F9237FF9
:1005800006B371F2002650293150D0F006B2102780
:1005900011FB22F9277E16B351F2012650290127BB
:1005A00001FB06B223F92F7C49F2000006B31027A5
:1005B00011FB24F90026502906B22F7939F270CFA9
:1005C00010E41ABF002719C03B503195C31BD0401F
:1005D00010E41ABF0881033C09F10B34F9F02091B3
:1005E000AA001981110F1213EDCF4A81441F093659
:1005F00051F10D3211F0013E29F70093B1003F9106
:100600005F914F911F910F912F91DF910F90CAB77A
:10061000C6FD1BCFCF91CFBFCF9118952091B100D0
:10062000222369F31091AF00112379F534307AF168
:100630003093AF002093AB001091AC003BE0311B36
:100640003093AC0024C00091AF000130F4F40AE50F
:100650004F7049F43091610034FD1AC0009361007D
:10066000C3E9D0E019C030919E0034FD11C0009361
:100670009E00CFE9D0E010C0052710E000C021C0E7
:10068000052710E0C89508BB14C03AE501C032ED5B
:10069000032EC0E0D0E032E017B31660C19A08B371
:1006A00017BB56E020E84FEF20FF052708BB279532
:1006B00017951C3F28F700004552B0F720FF05278B
:1006C000279508BB17951C3FB8F629913A9561F715
:1006D000097F1091B000110F08BBC250D04011F03B
:1006E0001093AA0010E41ABF026017B3197F402FBD
:1006F000497F54E05A95F1F708BB17BB48BB7FCF41
:1007000080918900882359F090916800903238F4E4
:10071000E92FF0E0E759FF4F8081811106C0109268
:100720008B0010928D0080E00895209162002223BA
:1007300009F44AC09F5F9093680090ED980F9A303B
:1007400040F410928B00803311F083511BC087E27C
:1007500019C09FE9980F9A3138F490916300927014
:1007600090938B008D550EC09FEB980F9A3168F4D3
:100770009091630091FD02C092E001C090E09093DF
:100780008B008D5380938D0023C010928B001092AC
:100790008D008032A9F030F48930A1F08A30C1F4A4
:1007A00088E2F0CF8E3229F08F3529F08D3281F436
:1007B00005C087E3E7CF82E080938B008DE2E2CF34
:1007C0008CE2E0CF8BE2DECF10928B0010928D0096
:1007D00081E0211180E08093620081E00895FC01B6
:1007E00080818076803261F59181923009F170F4D8
:1007F000913031F58BE890E09093AE008093AD009E
:1008000010928B0010928D0088E00895993031F09D
:100810009A30B1F4838180938A0012C091E02681DE
:1008200037812130310509F090E0892F81950895B5
:100830008AE890E09093AE008093AD0081E0089547
:1008400080E008959F92AF92BF92CF92DF92EF9295
:10085000FF920F931F93CF93DF931F92CDB7DEB715
:1008600020E0F12C0FE017E2E12C3CECA32E36EF58
:10087000B32E87E0C82ED12C90E4992E80E090E032
:100880008433994014F4E90C01C0E918E1BE2983CE
:10089000C6DD2981853339E0930724F0AC01445348
:1008A000594003C0A501481B590B4017510714F4C8
:1008B000FE2C8A01969431E0C31AD10809F7213041
:1008C00021F020E8E22E21E0D4CFF1BE0F90DF919D
:1008D000CF911F910F91FF90EF90DF90CF90BF903D
:1008E000AF909F90089582B78F738A3110F48F591B
:1008F0000895843310F4895D08958E3310F4845084
:1009000008958E3311F08FE508958DE20895CF9309
:10091000DF9380916600C0916700811118C0C430D8
:1009200028F4E1E0EC0FE093670039C01092670013
:10093000C1E0C093660047E150E06AED70E089E6EF
:1009400090E086D010926800C093890028C0D1E062
:10095000DC0FD0936700C7DFEC2FF0E0E759FF4FC3
:100960008083DA30E0F0ED2FF0E0E759FF4F10829E
:1009700040E250E060E070E089E690E082D045E13E
:1009800050E065EC70E089E690E062D0109268007B
:1009900081E0809389001092670010926600DF91D9
:1009A000CF910895FC01808190916300891719F01F
:1009B00080936300ACDF81E0089540E250E060E0A6
:1009C00070E089E690E04DD01092680081E080935D
:1009D000890010928B0010928C0010928D00109262
:1009E0008E0010928F001092900010929100109241
:1009F00092009EE088E10FB6F894A89581BD0FBEE5
:100A000091BDE7DCB99A8AEFA895E9E3F0E2319766
:100A1000F1F700C000008150B9F7B99883B7826040
:100A200083BF7894A895A5DB80919E0084FFFACFC0
:100A3000809189008130B1F7809163008F3F91F3FD
:100A40005FDE8093890068E08BE890E06EDBEACFA0
:100A5000FB01DC0102C005900D9241505040D8F7D7
:100A60000895DC01CB01FC01E199FECF06C0FFBB7C
:100A7000EEBBE09A31960DB20D9241505040B8F75E
:100A80000895DC01CB0102C02D9105D041505040AA
:100A9000D8F70895262FE199FECF1CBA9FBB8EBBD5
:100AA0002DBB0FB6F894E29AE19A0FBE0196089515
:040AB000F894FFCFE8
:040AB400FF5A01FFE5
:00000001FF
